:020000040800F2
:1000000000280020B10500080106000801060008CC
:1000100001060008010600080106000800000000B3
:1000200000000000000000000000000001060008C1
:100030000106000800000000010600080106000893
:100040000106000801060008010600080106000874
:100050000106000801060008010600080106000864
:100060000106000801060008010600080106000854
:100070000106000801060008010600080106000844
:100080000106000801060008010600080106000834
:100090000106000801060008010600080106000824
:1000A0000106000801060008010600080106000814
:1000B0000106000801060008010600080106000804
:1000C00001060008010600080106000801060008F4
:1000D00001060008010600080106000801060008E4
:1000E00001060008010600080000000001060008E3
:1000F00001060008010600080106000801060008C4
:1001000001060008010600080106000801060008B3
:1001100001060008010600080106000801060008A3
:100120000106000801060008010600080106000893
:1001300010B5054C237833B9044B13B10448AFF321
:1001400000800123237010BD0C000020000000007F
:10015000900F000808B5034B1BB103490348AFF3E8
:10016000008008BD0000000010000020900F000873
:1001700080B400AF074B9B69064A43F004039361C8
:10018000044B9B69034A43F00803936100BFBD46DB
:1001900080BC70470010024080B582B000AF4FF4C1
:1001A0008073BB800423BB710123FB713B1D194687
:1001B000274800F089FA4FF40073BB800423BB7119
:1001C0000123FB713B1D1946214800F07DFA4FF4D5
:1001D0008063BB800423BB710123FB713B1D194667
:1001E0001B4800F071FA4FF40063BB800423BB711D
:1001F0000123FB713B1D1946154800F065FA4FF4C9
:100200008053BB800423BB710123FB713B1D194646
:100210000F4800F059FA4FF40053BB800423BB7120
:100220000123FB713B1D1946094800F04DFA4FF4BC
:100230008043BB800423BB710123FB713B1D194626
:10024000034800F041FA00BF0837BD4680BD00BF3B
:10025000000C014080B485B000AF03460A46FB7134
:100260001346BB710123FB6007E0FA79FB6802FBD0
:1002700003F3FB60BB79013BBB71BB79002BF4D16D
:10028000FB6818461437BD4680BC704790B583B0F4
:1002900000AFFFF76DFFFFF77FFFAD4800F0ACFD4B
:1002A0004FF4FA7000F02CFC00F046FC0023FB71C8
:1002B00010E0FB79A74AD35C9BB21B029BB21946A4
:1002C000A54800F0AEFA4FF47A7000F019FCFB7903
:1002D0000133FB71FB790A2BEBD900F0B3FB00F083
:1002E000AFFA00F029FC9D4800F086FD4FF4FA704B
:1002F00000F006FC00F020FCBB1D184600F010FBCF
:10030000BB79FF2BF8D0964B1B781A46B979954BE1
:100310009954934B1B781A46924B9B5C184600F0FD
:10032000C1FC8F4B1B780133DAB28D4B1A708C4BAA
:100330001B78013B8B4AD35C2A3B192BDCD801A2EA
:1003400052F823F0AD030008AD030008F9020008DD
:10035000AD030008F9020008AD030008F902000827
:10036000F9020008F9020008F9020008F902000881
:10037000F9020008F9020008F9020008F902000871
:10038000F9020008F9020008F9020008F902000861
:1003900021040008F9020008F9020008F902000827
:1003A000F9020008F9020008890500086C4B1B7867
:1003B000013B6C4AD25C6C4B1A70694B1B78023B58
:1003C0006A4A13606A4B00221A601FE0674B1B6881
:1003D000644AD35C303B1C46654B1B68DBB2194654
:1003E0000A20FFF737FF034603FB04F3614A126854
:1003F00013441A465F4B1A605C4B1B68013B5B4A17
:1004000013605B4B1B680133594A1360574B1B68E1
:10041000002BDBDA524B1B781A46574B1A60BFE0B1
:100420004F4B1B78023B514A1360514B00221A601C
:100430001FE04E4B1B684B4AD35C303B1C464C4B79
:100440001B68DBB219460A20FFF704FF034603FBD3
:1004500004F34A4A126813441A46484B1A60434B45
:100460001B68013B414A1360414B1B680133404A02
:1004700013603E4B1A68404B1B689A42D9DA002140
:10048000012000F037FD384B1B782A3B052B54D850
:1004900001A252F823F000BFE1040008B1040008F3
:1004A0003B050008C90400083B050008FB040008E0
:1004B000304B1B689AB2314B1B689BB213449BB202
:1004C000184600F0C1FC38E02A4B1B689AB22B4B4F
:1004D0001B689BB2D31A9BB2184600F0B5FC2CE007
:1004E000244B1B689BB2254A126892B202FB03F3AD
:1004F0009BB2184600F0A8FC1FE0204B1B68002BA5
:1005000010D100F019FB0021002000F0F3FC1C4882
:1005100000F072FC0021012000F0ECFC194800F012
:100520006BFC09E0134B1A68144B1B6892FBF3F346
:100530009BB2184600F088FC00BF0E4B00221A60E8
:100540000E4B00221A60064B00221A7028E000BFF2
:10055000A80F000800000020000C0140B40F0008A4
:100560005E000020400000203C0000202800002009
:100570002C00002030000020380000203400002033
:10058000C80F0008D00F000800F0D6FA054B002273
:100590001A60054B00221A60044B00221A7000BF3B
:1005A000AAE600BF30000020340000205E000020DA
:1005B0000D488546AFF300800C480D490D4A0023D5
:1005C00002E0D458C4500433C4188C42F9D30A4A08
:1005D0000A4C002301E013600432A242FBD300F076
:1005E000B3FCFFF753FEFEE70028002000000020C8
:1005F0000C000020041000080C0000206000002007
:10060000FEE780B483B000AF0346FB80FB88802BFD
:1006100042D0802B11DC082B36D0082B06DC022BB5
:100620002ED0042B2ED0012B28D047E0202B2FD00A
:10063000402B2FD0102B29D040E0B3F5006F33D0E2
:10064000B3F5006F09DCB3F5007F29D0B3F5806FF7
:1006500028D0B3F5807F21D030E0B3F5005F27D0FC
:10066000B3F5005F03DCB3F5805F1FD026E0B3F580
:10067000804F1FD0B3F5004F1ED01FE000231EE0B7
:1006800004231CE008231AE00C2318E0102316E0D2
:10069000142314E0182312E01C2310E000230EE0C2
:1006A00004230CE008230AE00C2308E0102306E0F2
:1006B000142304E0182302E01C2300E00023184662
:1006C0000C37BD4680BC704790B585B000AF7860F0
:1006D00039600023BB600023FB733B681B88FF2B42
:1006E00001D87B6801E07B680433BB603B681B88F2
:1006F0001846FFF786FF03461A460F239340DA4356
:10070000BB681B681A40BB681A603B689B78072B64
:100710000BD03B689B78062B07D03B689B78052B5A
:1007200003D03B689B78042B0ED13B689B78043B3D
:100730009B005AB23B68DB785BB213435BB2DBB21F
:1007400003F00F03FB732CE03B689B78012B03D075
:100750003B689B78002B07D13B689B789B00DBB202
:1007600003F00F03FB731CE03B689B78082B02D15E
:100770000423FB7315E00823FB733B689B78022B73
:1007800007D17B68DB683A6812881A437B68DA60B5
:1007900007E07B68DB683A681288D2431A407B68BE
:1007A000DA60FC7B3B681B881846FFF72AFF03468C
:1007B00004FA03F2BB681B681A43BB681A6000BFE7
:1007C0001437BD4690BD80B485B000AF78600B464D
:1007D0007B807B689A687B881340002B02D00123C2
:1007E000FB7301E00023FB73FB7B18461437BD4607
:1007F00080BC704780B483B000AF78600B467B80CC
:1008000013467B707B78002B03D07A887B681A6153
:1008100002E07A887B685A6100BF0C37BD4680BC15
:10082000704780B483B000AF78600B467B807A88D5
:100830007B68DA6000BF0C37BD4680BC70470000A3
:1008400080B582B000AF1023BB800423BB710223AC
:10085000FB713B1D19463048FFF736FF2023BB8054
:100860000423BB710223FB713B1D19462A48FFF785
:100870002BFF4023BB800423BB710223FB713B1D74
:1008800019462548FFF720FF8023BB800423BB7156
:100890000223FB713B1D19461F48FFF715FF01237B
:1008A000BB800323BB713B1D19461C48FFF70CFF9F
:1008B0000223BB800323BB713B1D19461748FFF77A
:1008C00003FF0423BB800323BB713B1D1946134860
:1008D000FFF7FAFE0823BB800323BB713B1D1946BB
:1008E0000E48FFF7F1FE002210210B48FFF782FFB0
:1008F000002220210848FFF77DFF00224021064802
:10090000FFF778FF002280210348FFF773FF0023E1
:1009100018460837BD4680BD000C01400008014064
:1009200080B584B000AF78607B68FF221A70012325
:100930003B737B68002B5BD00023FB7354E0FB7B95
:100940002F4AD35C9BB2012219462E48FFF752FF73
:100950000023BB7336E0BB7B2B4AD35C9BB21946AA
:100960002A48FFF730FF03467B737B7B012B26D1A0
:10097000142000F0C5F8BB7B234AD35C9BB2194618
:100980002248FFF720FF03467B7309E0BB7B1E4A2A
:10099000D35C9BB219461D48FFF715FF03467B73D6
:1009A0007B7B012BF2D0FA7BBB7B194992000A4476
:1009B00013441A787B681A7000233B7305E0BB7BF5
:1009C0000133BB73BB7B032BC5D9FB7B0C4AD35CC8
:1009D0009BB2002219460B48FFF70CFF3B7B002B14
:1009E00008D0FB7B0133FB73FB7B032BA7D902E011
:1009F000012301E000BF002318461037BD4680BD2B
:100A0000F40F0008000C0140F80F00080008014036
:100A1000E40F000880B500AF012202210848FFF76B
:100A2000E9FE012000F06CF8002202210448FFF7E3
:100A3000E1FE022000F064F80023184680BD00BFEC
:100A4000000C014080B582B000AF0123BB800423BD
:100A5000BB710123FB713B1D19462748FFF734FE8C
:100A60000223BB800423BB710123FB713B1D19468C
:100A70002148FFF729FE1023BB800423BB7101230B
:100A8000FB713B1D19461D48FFF71EFE2023BB804E
:100A90000423BB710123FB713B1D19461748FFF767
:100AA00013FE4023BB800423BB710123FB713B1D5C
:100AB00019461248FFF708FE8023BB800423BB7150
:100AC0000123FB713B1D19460C48FFF7FDFD022079
:100AD00000F03EF8282000F03BF80E2000F038F837
:100AE000062000F035F8012000F032F80023184607
:100AF0000837BD4680BD00BF000C01400008014022
:100B000080B485B000AF78600023FB600BE0002369
:100B1000BB6002E0BB680133BB60BB68FE2BF9D948
:100B2000FB680133FB60FA687B689A42EFD300BF31
:100B30001437BD4680BC704780B500AF012000F07F
:100B400007F80220FFF7DCFF0023184680BD0000F5
:100B500080B582B000AF0346FB71002201214F48EF
:100B6000FFF748FE002204214C48FFF743FEFB79C3
:100B7000DB09DBB203F00103002B05D00122802149
:100B80004748FFF737FE04E0002280214448FFF782
:100B900031FEFB799B09DBB203F00103002B05D08A
:100BA000012240213E48FFF725FE04E000224021BB
:100BB0003B48FFF71FFEFB795B09DBB203F0010343
:100BC000002B05D0012220213548FFF713FE04E059
:100BD000002220213248FFF70DFEFB791B09DBB212
:100BE00003F00103002B05D0012210212C48FFF750
:100BF00001FE04E0002210212948FFF7FBFDFFF76A
:100C000009FFFB79DB08DBB203F00103002B05D001
:100C1000012280212248FFF7EDFD04E0002280211F
:100C20001F48FFF7E7FDFB799B08DBB203F00103E8
:100C3000002B05D0012240211948FFF7DBFD04E01D
:100C4000002240211648FFF7D5FDFB795B08DBB297
:100C500003F00103002B05D0012220211048FFF7EB
:100C6000C9FD04E0002220210D48FFF7C3FDFB79F8
:100C700003F00103002B05D0012210210848FFF7E3
:100C8000B9FD04E0002210210548FFF7B3FDFFF78E
:100C9000C1FE002318460837BD4680BD000C014048
:100CA0000008014080B582B000AF0346FB7101220D
:100CB00001214F48FFF79EFD002204214C48FFF719
:100CC00099FDFB79DB09DBB203F00103002B05D0B2
:100CD000012280214748FFF78DFD04E0002280219A
:100CE0004448FFF787FDFB799B09DBB203F0010362
:100CF000002B05D0012240213E48FFF77BFD04E098
:100D0000002240213B48FFF775FDFB795B09DBB210
:100D100003F00103002B05D0012220213548FFF705
:100D200069FD04E0002220213248FFF763FDFB79D2
:100D30001B09DBB203F00103002B05D001221021B7
:100D40002C48FFF757FD04E0002210212948FFF747
:100D500051FDFFF75FFEFB79DB08DBB203F0010317
:100D6000002B05D0012280212248FFF743FD04E03B
:100D7000002280211F48FFF73DFDFB799B08DBB275
:100D800003F00103002B05D0012240211948FFF791
:100D900031FD04E0002240211648FFF72BFDFB79CE
:100DA0005B08DBB203F00103002B05D001222021F8
:100DB0001048FFF71FFD04E0002220210D48FFF737
:100DC00019FDFB7903F00103002B05D0012210214E
:100DD0000848FFF70FFD04E0002210210548FFF747
:100DE00009FDFFF717FE002318460837BD4680BDF2
:100DF000000C01400008014080B584B000AF78606D
:100E0000012201210F48FFF7F5FC002204210D48C3
:100E1000FFF7F0FC0023FB7309E0FB7B7A681344C7
:100E20001B781846FFF73EFFFB7B0133FB73FB7B10
:100E30007A6813441B78002BEFD100231846103733
:100E4000BD4680BD000C014080B586B000AF0346B2
:100E5000FB80012201212548FFF7CCFC0022042160
:100E60002248FFF7C7FC0023FB750023BB75FB88F6
:100E7000002B20D13020FFF715FF32E0FA881C4B01
:100E8000A3FB0213D9080B469B000B445B00D31A4B
:100E90009BB2DAB2FB7D3032D2B207F118010B44BB
:100EA00003F80C2CFB88124AA2FB0323DB08FB800F
:100EB000FB7D0133FB75FB88002BDFD1FB7DBB7510
:100EC0000CE0BB7D013B07F11802134413F80C3C06
:100ED0001846FFF7E7FEBB7D013BBB75BB7D002BD2
:100EE000EFD1002318461837BD4680BD000C0140E5
:100EF000CDCCCCCC80B582B000AF03460A46FB71A6
:100F00001346BB71FB79002B09D1BB790F2B15D888
:100F1000BB79803BDBB21846FFF71AFE0EE0FB7987
:100F2000012B09D1BB790F2B08D8BB79403BDBB231
:100F30001846FFF70DFE01E0012300E000231846EC
:100F40000837BD4680BD000070B500250C4E0D4C25
:100F5000A41BA410A54209D100F01AF800250A4EDE
:100F60000A4CA41BA410A54205D170BD56F825302B
:100F700098470135EEE756F8253098470135F2E7F6
:100F8000FC0F0008FC0F0008FC0F00080010000810
:100F9000F8B500BFF8BC08BC9E467047F8B500BF66
:080FA000F8BC08BC9E46704736
:100FA80048656C6C6F2053544D33320043616C6359
:100FB800756C61746F72207265616479000000005D
:100FC8004552524F523A20004469766973696F6EF0
:100FD800206279207A65726F000000003738392F57
:100FE8003435362A3132332D43303D2B10204080A2
:040FF80001020408E6
:040FFC005501000893
:0410000031010008B2
:0C100400C0F9A4B0999282F88090C0005E
:04000005080005B139
:00000001FF
