:100000000C942A000C943D130C9447000C94470068
:100010000C9447000C9447000C9447000C94470044
:100020000C9447000C9447000C9447000C94470034
:100030000C9447000C9447000C9447000C94470024
:100040000C9447000C9447000C9447000C94470014
:100050000C94470011241FBECFE5D8E0DEBFCDBF12
:1000600010E0A0E6B0E0EAE7F3E402C005900D92EC
:10007000AC3EB107D9F710E0ACEEB0E001C01D9284
:10008000A83FB107E1F70E9457140C94BB210C94D0
:100090000000EF92FF920F931F937B018C0120E0F1
:1000A00030E040E05FE40E94F50388238CF0C80153
:1000B000B70120E030E040E05FE40E94C1010E940F
:1000C00055049B01AC01205030404040504806C0D0
:1000D000C801B7010E9455049B01AC01B901CA01D6
:1000E0001F910F91FF90EF900895A0E0B0E0EBE733
:1000F000F0E00C947B21DC012B01FA019C91923001
:1001000008F439C1EB018881823008F433C194309E
:1001100069F4843009F02FC111969C91119789815F
:10012000981709F428C1A0E8B0E025C1843009F48B
:1001300021C18230A9F4923009F01DC19A01AD01AC
:1001400088E0EA010990AE01E90109929E0181501F
:10015000C1F7E201898111969C918923818308C1AD
:10016000923009F407C112962D903C901397EB0141
:100170008A819B811496AD90BD90CD90DC901797AD
:10018000EC80FD800E811F819101281B390BB90184
:1001900037FF04C066277727621B730B6032710537
:1001A0000CF061C0121613066CF537014801062EDB
:1001B00004C096948794779467940A94D2F721E0C8
:1001C00030E040E050E004C0220F331F441F551FB1
:1001D0006A95D2F721503040404050402E213F21B7
:1001E00040235123211531054105510521F021E01E
:1001F00030E040E050E079018A01E628F72808293C
:1002000019293CC0232BD1F1260E371E350146019A
:10021000062E04C096948794779467940A94D2F734
:1002200021E030E040E050E004C0220F331F441FC3
:10023000551F6A95D2F721503040404050402A2146
:100240003B214C215D21211531054105510521F04E
:1002500021E030E040E050E059016A01A628B728CB
:10026000C828D9280BC0821593052CF01C01AA249C
:10027000BB24650103C0EE24FF24870111969C91E5
:10028000D20111968C91981709F445C0992339F041
:10029000A80197012A193B094C095D0906C0A6016E
:1002A00095012E193F09400B510B57FD08C01182D3
:1002B0003382228224833583468357831DC081E0A5
:1002C00081833382228288279927DC01821B930B4A
:1002D000A40BB50B84839583A683B7830DC0220F2F
:1002E000331F441F551F24833583468357838281E0
:1002F000938101979383828324813581468157813D
:10030000DA01C9010197A109B1098F5F9F4FAF4F72
:10031000BF4328F30BC0918333822282EA0CFB1C7B
:100320000C1D1D1DE482F5820683178383E0808304
:10033000248135814681578157FF1AC0C901AA27F8
:1003400097FDA095BA2F81709070A070B0705695EF
:10035000479537952795822B932BA42BB52B848318
:100360009583A683B7838281938101969383828349
:10037000DF0101C0D201CD01CDB7DEB7E2E10C94BF
:100380009721A0E2B0E0E7ECF1E00C9487216983CB
:100390007A838B839C832D833E834F835887E9E048
:1003A000EE2EF12CEC0EFD1ECE010196B7010E943F
:1003B0007E058E010F5E1F4FCE010596B8010E948B
:1003C0007E058A8991E089278A8BC701B801AE0131
:1003D000475E5F4F0E9475000E94A904A096E6E068
:1003E0000C94A321A0E2B0E0E8EFF1E00C948721A7
:1003F00069837A838B839C832D833E834F835887C5
:10040000F9E0EF2EF12CEC0EFD1ECE010196B701A6
:100410000E947E058E010F5E1F4FCE010596B8012A
:100420000E947E05C701B801AE01475E5F4F0E9482
:1004300075000E94A904A096E6E00C94A321A0E216
:10044000B0E0E5E2F2E00C947B2169837A838B8350
:100450009C832D833E834F835887CE010196BE0136
:10046000675F7F4F0E947E05CE010596BE016F5EDD
:100470007F4F0E947E059985923088F0898982306D
:10048000C8F0943019F4823051F404C0843029F457
:10049000923081F480E890E0C6C0923049F420E0C8
:1004A0009A858A89981321E02A87CE010996BBC0D4
:1004B000823049F420E09A858A89981321E02A8BBA
:1004C000CE014196B0C02D843E844F8458886D88FB
:1004D0007E888F88988CEE24FF248701AA24BB2471
:1004E000650140E050E060E070E0E0E0F0E0C10174
:1004F00081709070892BE9F0E60CF71C081D191D1E
:100500009A01AB012A0D3B1D4C1D5D1D80E090E062
:10051000A0E0B0E0E614F7040805190520F481E036
:1005200090E0A0E0B0E0BA01A901480F591F6A1F8E
:100530007B1FAA0CBB1CCC1CDD1C97FE08C081E0F5
:1005400090E0A0E0B0E0A82AB92ACA2ADB2A3196B6
:10055000E032F10549F0660C771C881C991C569412
:10056000479437942794C3CFFA85EA892B893C892D
:100570008B859C85280F391F2E5F3F4F17C0CA01FE
:1005800081709070892B61F016950795F794E79428
:1005900080E090E0A0E0B0E8E82AF92A0A2B1B2BC3
:1005A00076956795579547952F5F3F4F77FDE7CF36
:1005B0000CC0440F551F661F771F17FD4160EE0CDE
:1005C000FF1C001F111F21503040403090E05907A0
:1005D00090E0690790E4790760F32B8F3C8FDB0193
:1005E000CA018F779070A070B07080349105A1051A
:1005F000B10561F447FD0AC0E114F10401051105DC
:1006000029F0405C5F4F6F4F7F4F40781A8EFE1786
:1006100011F081E08A8F4D8F5E8F6F8F78A383E01A
:10062000898FCE0149960E94A904A096E2E10C941C
:100630009721A8E1B0E0EFE1F3E00C948321698316
:100640007A838B839C832D833E834F835887B9E0C5
:10065000EB2EF12CEC0EFD1ECE010196B7010E948F
:100660007E058E010F5E1F4FCE010596B8010E94D8
:100670007E052985223008F47EC03989323010F495
:10068000B8017CC08A859A8989278A87243011F02D
:10069000223031F4231709F06EC060E870E06EC0BC
:1006A000343039F41D861E861F86188A1C861B86E8
:1006B00004C0323021F484E08987B7015FC02B8504
:1006C0003C858B899C89281B390B3C872B87ED84C3
:1006D000FE840F851889AD88BE88CF88D88CEA142F
:1006E000FB040C051D0540F4EE0CFF1C001F111F40
:1006F000215030403C872B8720E030E040E050E044
:1007000080E090E0A0E0B0E460E070E0EA14FB0478
:100710000C051D0540F0282B392B4A2B5B2BEA18C2
:10072000FB080C091D09B695A79597958795EE0CC2
:10073000FF1C001F111F6F5F7F4F6F31710531F775
:10074000DA01C9018F779070A070B0708034910584
:10075000A105B10561F427FD0AC0E114F10401050A
:10076000110529F0205C3F4F4F4F5F4F20782D87B8
:100770003E874F87588BBE01675F7F4FCB010E943A
:10078000A9046896EAE00C949F21A8E1B0E0EBECA4
:10079000F3E00C94872169837A838B839C832D8378
:1007A0003E834F83588789E0E82EF12CEC0EFD1E26
:1007B000CE010196B7010E947E058E010F5E1F4F8C
:1007C000CE010596B8010E947E058985823040F0F1
:1007D0008989823028F0C701B8010E94F60501C05E
:1007E0008FEF6896E6E00C94A321A8E1B0E0EBEF70
:1007F000F3E00C94872169837A838B839C832D8318
:100800003E834F83588789E0E82EF12CEC0EFD1EC5
:10081000CE010196B7010E947E058E010F5E1F4F2B
:10082000CE010596B8010E947E058985823040F090
:100830008989823028F0C701B8010E94F60501C0FD
:100840008FEF6896E6E00C94A321A8E1B0E0EBE21C
:10085000F4E00C94872169837A838B839C832D83B6
:100860003E834F83588789E0E82EF12CEC0EFD1E65
:10087000CE010196B7010E947E058E010F5E1F4FCB
:10088000CE010596B8010E947E058985823040F030
:100890008989823028F0C701B8010E94F60501C09D
:1008A00081E06896E6E00C94A321ACE0B0E0EBE5D3
:1008B000F4E00C948B2169837A838B839C83CE0133
:1008C0000196BE016B5F7F4F0E947E058D81823055
:1008D00061F1823050F1843021F48E81882351F10E
:1008E0002EC02F81388537FD20C06E812F31310514
:1008F0001CF06623F9F023C08EE190E0821B930B7D
:1009000029853A854B855C8504C056954795379572
:1009100027958A95D2F76623B1F05095409530958A
:1009200021953F4F4F4F5F4F0EC020E030E040E039
:1009300050E009C02FEF3FEF4FEF5FE704C020E02A
:1009400030E040E050E8B901CA012C96E2E00C9496
:10095000A721DF92EF92FF920F931F93FC01E48097
:10096000F58006811781D1808081823048F480E053
:1009700090E0A0E1B0E0E82AF92A0A2B1B2BA5C0E1
:10098000843009F49FC0823021F4EE24FF248701D3
:1009900005C0E114F1040105110519F4E0E0F0E0EF
:1009A00096C0628173819FEF623879070CF05BC05B
:1009B00022E83FEF261B370B2A3131052CF020E0CF
:1009C00030E040E050E02AC0B801A701022E04C088
:1009D00076956795579547950A94D2F781E090E010
:1009E000A0E0B0E004C0880F991FAA1FBB1F2A9582
:1009F000D2F70197A109B1098E219F21A023B1232C
:100A00000097A105B10521F081E090E0A0E0B0E001
:100A10009A01AB01282B392B4A2B5B2BDA01C90138
:100A20008F779070A070B07080349105A105B105EA
:100A300039F427FF09C0205C3F4F4F4F5F4F04C080
:100A4000215C3F4F4F4F5F4FE0E0F0E02030A0E0EF
:100A50003A07A0E04A07A0E45A0710F0E1E0F0E00E
:100A600079018A0127C06038710564F5FB01E158FE
:100A7000FF4FD801C7018F779070A070B07080349D
:100A80009105A105B10539F4E7FE0DC080E490E0C1
:100A9000A0E0B0E004C08FE390E0A0E0B0E0E80E9A
:100AA000F91E0A1F1B1F17FF05C016950795F7941F
:100AB000E794319687E016950795F794E7948A9521
:100AC000D1F705C0EE24FF248701EFEFF0E06E2F91
:100AD000679566276795902F9F77D794DD24D794E5
:100AE0008E2F8695492F462B582F5D29B701CA01B5
:100AF0001F910F91FF90EF90DF900895FC01DB01B3
:100B0000408151812281622F6F7770E0221F22275E
:100B1000221F9381892F880F822B282F30E0991F65
:100B20009927991F11969C93119721153105A9F5C5
:100B3000411551056105710511F482E037C082E865
:100B40009FEF13969C938E9312979A01AB0167E0E7
:100B5000220F331F441F551F6A95D1F783E08C93F2
:100B60000DC0220F331F441F551F12968D919C916B
:100B70001397019713969C938E931297203080E0E1
:100B8000380780E0480780E4580758F314962D93FF
:100B90003D934D935C93179708952F3F310579F45A
:100BA000411551056105710519F484E08C93089590
:100BB00064FF03C081E08C9312C01C9210C02F57B9
:100BC000304013963C932E93129783E08C9387E0EA
:100BD000440F551F661F771F8A95D1F770641496CE
:100BE0004D935D936D937C93179708951F93DC014C
:100BF000FB019C91923008F447C08081823008F458
:100C000043C0943051F411961C91843099F5818140
:100C1000682F70E0611B71093FC0843021F0923071
:100C200031F48230B9F18181882389F12DC0119688
:100C30001C9111978230F1F081811817D9F4129626
:100C40002D913C911397828193818217930794F0A1
:100C500028173907BCF014968D919D910D90BC9189
:100C6000A02D2481358146815781281739074A07ED
:100C70005B0718F4112341F00AC082179307A407F9
:100C8000B50740F4112319F061E070E005C06FEF83
:100C90007FEF02C060E070E0CB011F910895DF9309
:100CA000CF93CDB7DEB780E00E946706A5E5B0E040
:100CB000E5E5F0E0808181608C93A5E5B0E0E5E5B5
:100CC000F0E0808182608C93CF91DF910895DF9373
:100CD000CF9300D00F92CDB7DEB789838981282FBB
:100CE00030E03B832A838A819B818130910589F0A2
:100CF0002A813B8122303105A1F08A819B810097B6
:100D0000B9F4ABE5B0E0EBE5F0E0808180648C9372
:100D10000FC0ABE5B0E0EBE5F0E0808180688C933C
:100D200007C0ABE5B0E0EBE5F0E0808180628C933A
:100D30000F900F900F90CF91DF910895DF93CF9395
:100D400000D00F92CDB7DEB789838981282F30E09C
:100D50003B832A838A819B818130910589F02A8196
:100D60003B8122303105A1F08A819B810097B9F443
:100D7000ABE5B0E0EBE5F0E080818F7B8C930FC0BA
:100D8000ABE5B0E0EBE5F0E080818F778C9307C0B6
:100D9000ABE5B0E0EBE5F0E080818F7D8C930F90C8
:100DA0000F900F90CF91DF910895DF93CF9300D0F4
:100DB00000D0CDB7DEB78B836C838B81869586950B
:100DC00086958A838B81877089838A81882361F5E0
:100DD0008C818130A1F4ABE3B0E0EBE3F0E0808103
:100DE000482F8981282F30E081E090E0022E02C058
:100DF000880F991F0A94E2F7842B8C93A1C0ABE370
:100E0000B0E0EBE3F0E08081482F8981282F30E0CB
:100E100081E090E0022E02C0880F991F0A94E2F749
:100E2000809584238C938CC08A81813061F58C817C
:100E30008130A1F4A8E3B0E0E8E3F0E08081482F3E
:100E40008981282F30E081E090E0022E02C0880FD7
:100E5000991F0A94E2F7842B8C9372C0A8E3B0E048
:100E6000E8E3F0E08081482F8981282F30E081E09D
:100E700090E0022E02C0880F991F0A94E2F7809535
:100E800084238C935DC08A81823061F58C818130AE
:100E9000A1F4A5E3B0E0E5E3F0E08081482F89818B
:100EA000282F30E081E090E0022E02C0880F991FC9
:100EB0000A94E2F7842B8C9343C0A5E3B0E0E5E30A
:100EC000F0E08081482F8981282F30E081E090E098
:100ED000022E02C0880F991F0A94E2F7809584239E
:100EE0008C932EC08A81833059F58C818130A1F496
:100EF000A2E3B0E0E2E3F0E08081482F8981282F6F
:100F000030E081E090E0022E02C0880F991F0A9421
:100F1000E2F7842B8C9314C0A2E3B0E0E2E3F0E0AC
:100F20008081482F8981282F30E081E090E0022ED7
:100F300002C0880F991F0A94E2F7809584238C934E
:100F40000F900F900F900F90CF91DF910895DF9346
:100F5000CF9300D000D0CDB7DEB78C838C8186953F
:100F6000869586958B838C8187708A8319828B8185
:100F7000882391F4E9E3F0E08081282F30E08A8132
:100F8000882F90E0A90102C0559547958A95E2F710
:100F9000CA01817089833EC08B81813091F4E6E380
:100FA000F0E08081282F30E08A81882F90E0A9012D
:100FB00002C0559547958A95E2F7CA0181708983E9
:100FC00029C08B81823091F4E3E3F0E08081282F07
:100FD00030E08A81882F90E0A90102C0559547959D
:100FE0008A95E2F7CA018170898314C08B818330AE
:100FF00089F4E0E3F0E08081282F30E08A81882FB7
:1010000090E0A90102C0559547958A95E2F7CA017B
:101010008170898389810F900F900F900F90CF91ED
:10102000DF910895DF93CF9300D0CDB7DEB78983EA
:101030006A838981882329F4EBE3F0E08A81808345
:1010400017C08981813029F4E8E3F0E08A81808348
:101050000FC08981823029F4E5E3F0E08A81808342
:1010600007C08981833021F4E2E3F0E08A81808344
:101070000F900F90CF91DF910895DF93CF9300D021
:10108000CDB7DEB71A8219821A821982FBC1898113
:101090009A81880F991F880F991FFC01E857FF4F0D
:1010A0008081882309F071C089819A81880F991FF6
:1010B0000196880F991FFC01E857FF4F808181300E
:1010C000E9F4AAE3B0E0EAE3F0E08081482F898107
:1010D0009A81880F991F880F991FFC01E757FF4FCE
:1010E0008081282F30E081E090E0022E02C0880F3E
:1010F000991F0A94E2F7842B8C93BFC1AAE3B0E056
:10110000EAE3F0E08081482F89819A81880F991F56
:10111000880F991FFC01E757FF4F8081282F30E08F
:1011200081E090E0022E02C0880F991F0A94E2F736
:10113000809584238C9389819A81880F991F880FC9
:10114000991FFC01E557FF4F8081813009F095C15F
:10115000ABE3B0E0EBE3F0E08081482F89819A8136
:10116000880F991F880F991FFC01E757FF4F808157
:10117000282F30E081E090E0022E02C0880F991FF6
:101180000A94E2F7842B8C9378C189819A81880F25
:10119000991F880F991FFC01E857FF4F808181300C
:1011A00009F071C089819A81880F991F0196880F73
:1011B000991FFC01E857FF4F80818130E9F4A7E3D4
:1011C000B0E0E7E3F0E08081482F89819A81880FC1
:1011D000991F880F991FFC01E757FF4F8081282F27
:1011E00030E081E090E0022E02C0880F991F0A943F
:1011F000E2F7842B8C9341C1A7E3B0E0E7E3F0E092
:101200008081482F89819A81880F991F880F991FA3
:10121000FC01E757FF4F8081282F30E081E090E00C
:10122000022E02C0880F991F0A94E2F7809584234A
:101230008C9389819A81880F991F880F991FFC01CF
:10124000E557FF4F8081813009F017C1A8E3B0E076
:10125000E8E3F0E08081482F89819A81880F991F07
:10126000880F991FFC01E757FF4F8081282F30E03E
:1012700081E090E0022E02C0880F991F0A94E2F7E5
:10128000842B8C93FAC089819A81880F991F880FCB
:10129000991FFC01E857FF4F8081823009F071C02F
:1012A00089819A81880F991F0196880F991FFC01E7
:1012B000E857FF4F80818130E9F4A4E3B0E0E4E334
:1012C000F0E08081482F89819A81880F991F880FCB
:1012D000991FFC01E757FF4F8081282F30E081E004
:1012E00090E0022E02C0880F991F0A94E2F7842B27
:1012F0008C93C3C0A4E3B0E0E4E3F0E08081482F26
:1013000089819A81880F991F880F991FFC01E757DF
:10131000FF4F8081282F30E081E090E0022E02C054
:10132000880F991F0A94E2F7809584238C93898112
:101330009A81880F991F880F991FFC01E557FF4F6D
:101340008081813009F099C0A5E3B0E0E5E3F0E0E9
:101350008081482F89819A81880F991F880F991F52
:10136000FC01E757FF4F8081282F30E081E090E0BB
:10137000022E02C0880F991F0A94E2F7842B8C93E7
:101380007CC089819A81880F991F880F991FFC0161
:10139000E857FF4F8081833009F06FC089819A81BF
:1013A000880F991F0196880F991FFC01E857FF4F7E
:1013B00080818130E9F4A1E3B0E0E1E3F0E08081F5
:1013C000482F89819A81880F991F880F991FFC01E6
:1013D000E757FF4F8081282F30E081E090E0022E18
:1013E00002C0880F991F0A94E2F7842B8C9345C0A2
:1013F000A1E3B0E0E1E3F0E08081482F89819A81A8
:10140000880F991F880F991FFC01E757FF4F8081B4
:10141000282F30E081E090E0022E02C0880F991F53
:101420000A94E2F7809584238C9389819A81880FAE
:10143000991F880F991FFC01E557FF4F808181306C
:10144000E1F4A2E3B0E0E2E3F0E08081482F89819B
:101450009A81880F991F880F991FFC01E757FF4F4A
:101460008081282F30E081E090E0022E02C0880FBA
:10147000991F0A94E2F7842B8C9389819A810196B3
:101480009A83898389819A81833191050CF4FFCDF8
:101490000F900F90CF91DF910895DF93CF9300D0FD
:1014A0000F92CDB7DEB789838981282F30E03B8347
:1014B0002A838A819B818430910509F493C02A8113
:1014C0003B8125303105ECF48A819B818130910587
:1014D00009F455C02A813B81223031052CF48A81E0
:1014E0009B81009799F100C12A813B81223031050F
:1014F00009F44EC08A819B818330910509F45DC057
:10150000F3C02A813B812730310509F4AAC08A81C2
:101510009B81883091056CF42A813B81253031050F
:1015200009F471C08A819B818630910509F480C0DD
:10153000DBC02A813B812830310509F49FC08A81B4
:101540009B818930910509F4B6C0CEC080E161E08D
:101550000E94D50681E161E00E94D50682E161E04A
:101560000E94D50683E161E00E94D50684E161E036
:101570000E94D50685E161E00E94D506B9C081E1EF
:1015800061E00E94D50682E161E00E94D506B0C00C
:1015900080E161E00E94D50681E161E00E94D5060C
:1015A00083E161E00E94D50684E161E00E94D506F6
:1015B00086E161E00E94D5069BC080E161E00E9467
:1015C000D50681E161E00E94D50682E161E00E94DA
:1015D000D50683E161E00E94D50686E161E00E94C4
:1015E000D50686C081E161E00E94D50682E161E016
:1015F0000E94D50685E161E00E94D50686E161E0A2
:101600000E94D50675C080E161E00E94D50682E1A6
:1016100061E00E94D50683E161E00E94D50685E184
:1016200061E00E94D50686E161E00E94D50660C0B7
:1016300080E161E00E94D50682E161E00E94D5066A
:1016400083E161E00E94D50684E161E00E94D50655
:1016500085E161E00E94D50686E161E00E94D50641
:1016600047C080E161E00E94D50681E161E00E940F
:10167000D50682E161E00E94D5063AC080E161E0D2
:101680000E94D50681E161E00E94D50682E161E019
:101690000E94D50683E161E00E94D50684E161E005
:1016A0000E94D50685E161E00E94D50686E161E0F1
:1016B0000E94D5061DC080E161E00E94D50681E14F
:1016C00061E00E94D50682E161E00E94D50683E1D7
:1016D00061E00E94D50685E161E00E94D50686E1C1
:1016E00061E00E94D50604C080E161E00E94D50659
:1016F0000F900F900F90CF91DF910895DF93CF93CC
:1017000000D0CDB7DEB789836A830F900F90CF9159
:10171000DF910895DF93CF93CDB7DEB783E30E94C7
:10172000A30B82E30E94A30B88E20E94A30B8CE030
:101730000E94A30B86E00E94A30B81E00E94A30BF2
:10174000CF91DF910895DF93CF930F92CDB7DEB79E
:10175000898389E060E00E94D5068AE060E00E940B
:10176000D506898188232CF487E061E00E94D506A4
:1017700004C087E060E00E94D50689818295869545
:1017800086958370882F90E081709070882329F06F
:1017900086E061E00E94D50604C086E060E00E9419
:1017A000D5068981829586958770882F90E0817013
:1017B0009070882329F085E061E00E94D50604C07E
:1017C00085E060E00E94D506898182958F70882F20
:1017D00090E081709070882329F084E061E00E949D
:1017E000D50604C084E060E00E94D5060E94FC0D8E
:1017F0008981869586958695882F90E08170907076
:10180000882329F087E061E00E94D50604C087E0C4
:1018100060E00E94D506898186958695882F90E0A4
:1018200081709070882329F086E061E00E94D506DF
:1018300004C086E060E00E94D50689818695882FE5
:1018400090E081709070882329F085E061E00E942B
:10185000D50604C085E060E00E94D5068981882F06
:1018600090E081709070882329F084E061E00E940C
:10187000D50604C084E060E00E94D5060E94FC0DFD
:101880000F90CF91DF910895DF93CF930F92CDB753
:10189000DEB7898389E061E00E94D5068AE060E0D6
:1018A0000E94D506898188232CF487E061E00E949C
:1018B000D50604C087E060E00E94D5068981829544
:1018C000869586958370882F90E08170907088232C
:1018D00029F086E061E00E94D50604C086E060E061
:1018E0000E94D5068981829586958770882F90E021
:1018F00081709070882329F085E061E00E94D50610
:1019000004C085E060E00E94D506898182958F70D1
:10191000882F90E081709070882329F084E061E046
:101920000E94D50604C084E060E00E94D5060E94B3
:10193000FC0D8981869586958695882F90E081702B
:101940009070882329F087E061E00E94D50604C0EA
:1019500087E060E00E94D506898186958695882F6C
:1019600090E081709070882329F086E061E00E9409
:10197000D50604C086E060E00E94D5068981869580
:10198000882F90E081709070882329F085E061E0D5
:101990000E94D50604C085E060E00E94D5068981DA
:1019A000882F90E081709070882329F084E061E0B6
:1019B0000E94D50604C084E060E00E94D5060E9423
:1019C000FC0D0F90CF91DF9108950F931F93DF933C
:1019D000CF9300D000D0CDB7DEB79C838B8389E056
:1019E00061E00E94D5068AE060E00E94D5061A8276
:1019F00019821A821982CCC029813A818B819C81FB
:101A0000FC01E20FF31F808188232CF487E061E062
:101A10000E94D50604C087E060E00E94D5062981B7
:101A20003A818B819C81FC01E20FF31F80818295BA
:101A3000869586958370882F90E0817090708823BA
:101A400029F086E061E00E94D50604C086E060E0EF
:101A50000E94D50629813A818B819C81FC01E20F8D
:101A6000F31F8081829586958770882F90E0817022
:101A70009070882329F085E061E00E94D50604C0BB
:101A800085E060E00E94D50629813A818B819C81A6
:101A9000FC01E20FF31F808182958F70882F90E008
:101AA00081709070882329F084E061E00E94D5065F
:101AB00004C084E060E00E94D5060E94FC0D2981EC
:101AC0003A818B819C81FC01E20FF31F8081869516
:101AD00086958695882F90E081709070882329F0F4
:101AE00087E061E00E94D50604C087E060E00E94C4
:101AF000D50629813A818B819C81FC01E20FF31F7D
:101B0000808186958695882F90E0817090708823DB
:101B100029F086E061E00E94D50604C086E060E01E
:101B20000E94D50629813A818B819C81FC01E20FBC
:101B3000F31F80818695882F90E0817090708823B4
:101B400029F085E061E00E94D50604C085E060E0F0
:101B50000E94D50629813A818B819C81FC01E20F8C
:101B6000F31F8081882F90E081709070882329F086
:101B700084E061E00E94D50604C084E060E00E9439
:101B8000D5060E94FC0D89819A8101969A838983EA
:101B900009811A818B819C810E94B2210817190743
:101BA00008F42ACF0F900F900F900F90CF91DF91F4
:101BB0001F910F910895DF93CF9300D000D0CDB740
:101BC000DEB79A8389836B834C8389E061E00E944E
:101BD000D5068AE060E00E94D5068B816C810E9468
:101BE000471289819A810E94E50C0F900F900F9007
:101BF0000F90CF91DF910895DF93CF93CDB7DEB7EC
:101C0000E0970FB6F894DEBF0FBECDBF8BE061E06A
:101C10000E94D50680E090E0A0E2B1E48DA79EA7E7
:101C2000AFA7B8AB6DA57EA58FA598A92BEA3AEA18
:101C30004AE250E40E941F02DC01CB0189A79AA767
:101C4000ABA7BCA769A57AA58BA59CA520E030E031
:101C500040E85FE30E94250488231CF481E088A704
:101C600091C069A57AA58BA59CA520E030E04FE73F
:101C700053E40E94C50318160CF07BC06DA57EA529
:101C80008FA598A920E030E04AE754E40E941903A8
:101C9000DC01CB018CA39DA3AEA3BFA36CA17DA14E
:101CA0008EA19FA120E030E04AEF54E40E941F0281
:101CB000DC01CB0188A399A3AAA3BBA368A179A146
:101CC0008AA19BA120E030E040E85FE30E94250468
:101CD00088232CF481E090E09F8F8E8F3FC068A115
:101CE00079A18AA19BA120E03FEF4FE757E40E9432
:101CF000C50318164CF56CA17DA18EA19FA120E013
:101D000030E040E251E40E941F02DC01CB01BC0143
:101D1000CD010E944900DC01CB019F8F8E8F0FC047
:101D200088EC90E09D8F8C8F8C8D9D8D0197F1F7C5
:101D30009D8F8C8F8E8D9F8D01979F8F8E8F8E8D17
:101D40009F8D009769F724C068A179A18AA19BA102
:101D50000E944900DC01CB019F8F8E8F8E8D9F8D5D
:101D60009B8F8A8F8A8D9B8D0197F1F79B8F8A8F2E
:101D70000FC069A57AA58BA59CA50E944900DC012E
:101D8000CB0188A788A5898F898D8A95F1F7898FDE
:101D90008BE060E00E94D50680E090E0AAEFB4E41A
:101DA0008D8B9E8BAF8BB88F6D897E898F89988D37
:101DB0002BEA3AEA4AE250E40E941F02DC01CB011E
:101DC000898B9A8BAB8BBC8B69897A898B899C892F
:101DD00020E030E040E85FE30E94250488231CF403
:101DE00081E0888B91C069897A898B899C8920E000
:101DF00030E04FE753E40E94C50318160CF07BC097
:101E00006D897E898F89988D20E030E04AE754E41F
:101E10000E941903DC01CB018C879D87AE87BF87A9
:101E20006C857D858E859F8520E030E04AEF54E407
:101E30000E941F02DC01CB0188879987AA87BB8794
:101E4000688579858A859B8520E030E040E85FE3FE
:101E50000E94250488232CF481E090E09F838E83E8
:101E60003FC0688579858A859B8520E03FEF4FE7F5
:101E700057E40E94C50318164CF56C857D858E8548
:101E80009F8520E030E040E251E40E941F02DC0127
:101E9000CB01BC01CD010E944900DC01CB019F8335
:101EA0008E830FC088EC90E09D838C838C819D8114
:101EB0000197F1F79D838C838E819F8101979F838A
:101EC0008E838E819F81009769F724C0688579850C
:101ED0008A859B850E944900DC01CB019F838E830C
:101EE0008E819F819B838A838A819B810197F1F7F1
:101EF0009B838A830FC069897A898B899C890E9418
:101F00004900DC01CB01888B8889898389818A9586
:101F1000F1F78983E0960FB6F894DEBF0FBECDBF10
:101F2000CF91DF910895DF93CF93CDB7DEB72E9792
:101F30000FB6F894DEBF0FBECDBF9E878D8789E0B8
:101F400061E00E94D5068AE060E00E94D5061A8210
:101F500019828D859E85009711F580E30E94440CBF
:101F600039C08A81E82FF0E08D859E852AE030E037
:101F7000B9010E945421282F205DCE010396E80F5D
:101F8000F91F20838D859E852AE030E0B9010E94EB
:101F90005421CB019E878D878A818F5F8A838D85AF
:101FA0009E850097F1F68A81898311C08981882FE7
:101FB00090E09C0121503040CE010396FC01E20FDD
:101FC000F31F80810E94440C89818150898389811B
:101FD000882361F72E960FB6F894DEBF0FBECDBFF3
:101FE000CF91DF910895DF93CF93CDB7DEB7A2975E
:101FF0000FB6F894DEBF0FBECDBF98A38F8F69A335
:102000004AA389E061E00E94D5068AE060E00E9470
:10201000D50689A1813009F076C080E80E94A30B23
:1020200080E090E0A0E8BFE3898F9A8FAB8FBC8FF0
:10203000698D7A8D8B8D9C8D20E030E04AEF54E4E1
:102040000E941F02DC01CB018D8B9E8BAF8BB88F62
:102050006D897E898F89988D20E030E040E85FE3CC
:102060000E94250488232CF481E090E09C8B8B8BCC
:102070003FC06D897E898F89988D20E03FEF4FE7C3
:1020800057E40E94C50318164CF5698D7A8D8B8D27
:102090009C8D20E030E040E251E40E941F02DC0110
:1020A000CB01BC01CD010E944900DC01CB019C8B1E
:1020B0008B8B0FC088EC90E09A8B898B89899A89E9
:1020C0000197F1F79A8B898B8B899C8901979C8B5F
:1020D0008B8B8B899C89009769F78EC06D897E896F
:1020E0008F89988D0E944900DC01CB019C8B8B8BE2
:1020F0008B899C89988B8F878F8598890197F1F7B9
:10210000988B8F8779C089A1823009F075C080ECE7
:102110000E94A30B80E090E0A0E2B1E48B879C8753
:10212000AD87BE876B857C858D859E8520E030E000
:102130004AEF54E40E941F02DC01CB018F83988791
:10214000A987BA876F81788589859A8520E030E0F4
:1021500040E85FE30E94250488232CF481E090E0AE
:102160009E838D833FC06F81788589859A8520E025
:102170003FEF4FE757E40E94C50318164CF56B85F7
:102180007C858D859E8520E030E040E251E40E9410
:102190001F02DC01CB01BC01CD010E944900DC0122
:1021A000CB019E838D830FC088EC90E09C838B8352
:1021B0008B819C810197F1F79C838B838D819E811C
:1021C00001979E838D838D819E81009769F714C04E
:1021D0006F81788589859A850E944900DC01CB0151
:1021E0009E838D838D819E819A83898389819A8143
:1021F0000197F1F79A83898381E090E09E8F8D8F1C
:1022000008C08CE10E94A30B8D8D9E8D01969E8F40
:102210008D8F8AA1282F30E08D8D9E8D281739074C
:1022200084F78F8D98A10E94930FA2960FB6F89411
:10223000DEBF0FBECDBFCF91DF910895DF93CF9367
:10224000CDB7DEB7A1970FB6F894DEBF0FBECDBFF6
:102250008F8F68A349A389E061E00E94D5068AE0D8
:1022600060E00E94D50688A1813009F076C080E840
:102270000E94A30B80E090E0A0E8BFE3898F9A8FD3
:10228000AB8FBC8F698D7A8D8B8D9C8D20E030E07B
:102290004AEF54E40E941F02DC01CB018D8B9E8B20
:1022A000AF8BB88F6D897E898F89988D20E030E063
:1022B00040E85FE30E94250488232CF481E090E04D
:1022C0009C8B8B8B3FC06D897E898F89988D20E098
:1022D0003FEF4FE757E40E94C50318164CF5698D90
:1022E0007A8D8B8D9C8D20E030E040E251E40E949D
:1022F0001F02DC01CB01BC01CD010E944900DC01C1
:10230000CB019C8B8B8B0FC088EC90E09A8B898BD8
:1023100089899A890197F1F79A8B898B8B899C8996
:1023200001979C8B8B8B8B899C89009769F78EC05A
:102330006D897E898F89988D0E944900DC01CB01CF
:102340009C8B8B8B8B899C89988B8F878F859889A9
:102350000197F1F7988B8F8779C088A1823009F0B7
:1023600075C080EC0E94A30B80E090E0A0E2B1E495
:102370008B879C87AD87BE876B857C858D859E8589
:1023800020E030E04AEF54E40E941F02DC01CB0160
:102390008F839887A987BA876F81788589859A8581
:1023A00020E030E040E85FE30E94250488232CF41D
:1023B00081E090E09E838D833FC06F817885898521
:1023C0009A8520E03FEF4FE757E40E94C5031816B7
:1023D0004CF56B857C858D859E8520E030E040E264
:1023E00051E40E941F02DC01CB01BC01CD010E941F
:1023F0004900DC01CB019E838D830FC088EC90E007
:102400009C838B838B819C810197F1F79C838B83C9
:102410008D819E8101979E838D838D819E81009702
:1024200069F714C06F81788589859A850E94490073
:10243000DC01CB019E838D838D819E819A8389836C
:1024400089819A810197F1F79A83898381E090E0ED
:102450009E8F8D8F08C08CE10E94A30B8D8D9E8D69
:1024600001969E8F8D8F89A1282F30E08D8D9E8DB6
:102470002817390784F78F8D0E94440CA1960FB658
:10248000F894DEBF0FBECDBFCF91DF910895DF93EB
:10249000CF9300D000D0CDB7DEB789836A838A811D
:1024A00081508A838981282F30E03C832B838B8164
:1024B0009C818130910531F02B813C8122303105A6
:1024C00031F009C08A8180580E94A30B04C08A8120
:1024D00080540E94A30B0F900F900F900F90CF91FC
:1024E000DF910895DF93CF930F92CDB7DEB78FEFD3
:1024F000898384E10E94A707882311F4198217C0F9
:1025000085E10E94A707882319F481E089830FC021
:1025100086E10E94A707882319F482E0898307C017
:1025200087E10E94A707882311F483E089838981CA
:102530000F90CF91DF910895DF93CF9300D0CDB767
:10254000DEB78FEF8A8380E160E00E94D50681E1EB
:1025500061E00E94D50682E161E00E94D50683E138
:1025600061E00E94D5060E947212898389818F3FA3
:1025700041F08981882F90E0FC01EC52FF4F80816F
:102580008A8380E161E00E94D50681E160E00E94DB
:10259000D50682E161E00E94D50683E161E00E94F8
:1025A000D5060E947212898389818F3F41F089810B
:1025B000882F90E0FC01E852FF4F80818A8380E100
:1025C00061E00E94D50681E161E00E94D50682E1CA
:1025D00060E00E94D50683E161E00E94D5060E947A
:1025E0007212898389818F3F41F08981882F90E021
:1025F000FC01E452FF4F80818A8380E161E00E9408
:10260000D50681E161E00E94D50682E161E00E9489
:10261000D50683E160E00E94D5060E94721289838C
:1026200089818F3F41F08981882F90E0FC01E05241
:10263000FF4F80818A838A810F900F90CF91DF9125
:102640000895DF93CF93CDB7DEB7ABE5B0E0EBE510
:10265000F0E0808180648C93A5E5B0E0E5E5F0E0F2
:10266000808181608C93A5E5B0E0E5E5F0E08081B4
:102670008D7F8C93CF91DF9108951F920F920FB6AB
:102680000F9211242F933F934F935F936F937F93F8
:102690008F939F93AF93BF93EF93FF93DF93CF936A
:1026A000CDB7DEB76C97DEBFCDBF8CE161E00E9495
:1026B000D50680E090E0A8E4B4E4898F9A8FAB8FD0
:1026C000BC8F698D7A8D8B8D9C8D20E030E04AEF38
:1026D00054E40E941F02DC01CB018D8B9E8BAF8BDB
:1026E000B88F6D897E898F89988D20E030E040E831
:1026F0005FE30E94250488232CF481E090E09C8B0A
:102700008B8B3FC06D897E898F89988D20E03FEF4C
:102710004FE757E40E94C50318164CF5698D7A8D72
:102720008B8D9C8D20E030E040E251E40E941F023E
:10273000DC01CB01BC01CD010E944900DC01CB01D1
:102740009C8B8B8B0FC088EC90E09A8B898B89894E
:102750009A890197F1F79A8B898B8B899C890197CC
:102760009C8B8B8B8B899C89009769F714C06D8932
:102770007E898F89988D0E944900DC01CB019C8B5A
:102780008B8B8B899C89988B8F878F8598890197F4
:10279000F1F7988B8F878CE160E00E94D50680E08E
:1027A00090E0A8E4B4E48B879C87AD87BE876B85F7
:1027B0007C858D859E8520E030E04AEF54E40E94C0
:1027C0001F02DC01CB018F839887A987BA876F81AD
:1027D000788589859A8520E030E040E85FE30E94B3
:1027E000250488232CF481E090E09E838D833FC0F4
:1027F0006F81788589859A8520E03FEF4FE757E420
:102800000E94C50318164CF56B857C858D859E85C9
:1028100020E030E040E251E40E941F02DC01CB01E5
:10282000BC01CD010E944900DC01CB019E838D8358
:102830000FC088EC90E09C838B838B819C810197F7
:10284000F1F79C838B838D819E8101979E838D837D
:102850008D819E81009769F714C06F817885898585
:102860009A850E944900DC01CB019E838D838D8176
:102870009E819A83898389819A810197F1F79A834E
:1028800089836C96DEBFCDBFCF91DF91FF91EF9131
:10289000BF91AF919F918F917F916F915F914F9178
:1028A0003F912F910F900FBE0F901F9018950F938F
:1028B0001F93DF93CF93CDB7DEB7C45BD0400FB685
:1028C000F894DEBF0FBECDBF0E943D08AFE5B0E07B
:1028D000EFE5F0E0808180688C930E944F060E94B3
:1028E0008A0B80E690E061E041E00E94DB0D809180
:1028F000ED00082F10E00E949C12F801E051FF4FFC
:1029000080838091ED00882F90E0FC01E051FF4F23
:1029100080818F3F61F38091ED00882F90E0FC0172
:10292000E051FF4F80810E94440C8091ED008F5F49
:102930008093ED00FE01EB55FF4F80E090E0A6E9AB
:10294000B3E480839183A283B3838E010F551F4F1D
:10295000FE01EB55FF4F608171818281938120E000
:1029600030E04AEF54E40E941F02DC01CB01F80181
:1029700080839183A283B383FE01EF55FF4F608173
:1029800071818281938120E030E040E85FE30E9422
:102990002504882344F4FE01E156FF4F81E090E0D6
:1029A0009183808364C0FE01EF55FF4F6081718188
:1029B0008281938120E03FEF4FE757E40E94C503F7
:1029C00018160CF043C0FE01EB55FF4F608171817A
:1029D0008281938120E030E040E251E40E941F02B6
:1029E000DC01CB018E0101561F4FBC01CD010E94BD
:1029F0004900DC01CB01F801918380831FC0FE01F7
:102A0000E356FF4F88EC90E091838083FE01E3560C
:102A1000FF4F808191810197F1F7FE01E356FF4F4F
:102A200091838083DE01A156BF4FFE01E156FF4F27
:102A300080819181019711969C938E93FE01E156BE
:102A4000FF4F808191810097D1F627C08E010156FA
:102A50001F4FFE01EF55FF4F60817181828193818D
:102A60000E944900DC01CB01F80191838083DE01E3
:102A7000A556BF4FFE01E156FF4F808191818D9396
:102A80009C93FE01E556FF4F808191810197F1F7FC
:102A9000FE01E556FF4F918380838091ED00082F62
:102AA00010E00E949C12F801E051FF4F808380915A
:102AB000ED00882F90E0FC01E051FF4F80818F3FB7
:102AC00061F38091ED00882F90E0FC01E051FF4F11
:102AD00080810E94440C8091ED008F5F8093ED0017
:102AE000FE01E956FF4F80E090E0A6E9B3E4808361
:102AF0009183A283B3838E010D561F4FFE01E956C9
:102B0000FF4F608171818281938120E030E04AEF44
:102B100054E40E941F02DC01CB01F8018083918301
:102B2000A283B383FE01ED56FF4F608171818281E4
:102B3000938120E030E040E85FE30E942504882391
:102B400044F4FE01EF56FF4F81E090E091838083D3
:102B500064C0FE01ED56FF4F6081718182819381D7
:102B600020E03FEF4FE757E40E94C50318160CF032
:102B700043C0FE01E956FF4F6081718182819381DC
:102B800020E030E040E251E40E941F02DC01CB0172
:102B90008E010F561F4FBC01CD010E944900DC0180
:102BA000CB01F801918380831FC0FE01E157FF4FE5
:102BB00088EC90E091838083FE01E157FF4F808194
:102BC00091810197F1F7FE01E157FF4F91838083D7
:102BD000DE01AF56BF4FFE01EF56FF4F808191815E
:102BE000019711969C938E93FE01EF56FF4F8081C3
:102BF00091810097D1F627C08E010F561F4FFE011D
:102C0000ED56FF4F60817181828193810E9449005E
:102C1000DC01CB01F80191838083DE01A357BF4F14
:102C2000FE01EF56FF4F808191818D939C93FE01B1
:102C3000E357FF4F808191810197F1F7FE01E35740
:102C4000FF4F918380838091ED00082F10E00E9458
:102C50009C12F801E051FF4F80838091ED00882F96
:102C600090E0FC01E051FF4F80818F3F61F3809144
:102C7000ED00882F90E0FC01E051FF4F80810E9421
:102C8000440C8091ED008F5F8093ED00FE01E757CB
:102C9000FF4F80E090E0A6E9B3E480839183A283B4
:102CA000B3838E010B571F4FFE01E757FF4F608123
:102CB00071818281938120E030E04AEF54E40E94E8
:102CC0001F02DC01CB01F80180839183A283B383CF
:102CD000FE01EB57FF4F608171818281938120E07B
:102CE00030E040E85FE30E942504882344F4FE01BD
:102CF000ED57FF4F81E090E09183808364C0FE0137
:102D0000EB57FF4F608171818281938120E03FEF1B
:102D10004FE757E40E94C50318160CF043C0FE01AC
:102D2000E757FF4F608171818281938120E030E01D
:102D300040E251E40E941F02DC01CB018E010D57DD
:102D40001F4FBC01CD010E944900DC01CB01F801FD
:102D5000918380831FC0FE01EF57FF4F88EC90E006
:102D600091838083FE01EF57FF4F8081918101970E
:102D7000F1F7FE01EF57FF4F91838083DE01AD57DE
:102D8000BF4FFE01ED57FF4F808191810197119652
:102D90009C938E93FE01ED57FF4F808191810097A8
:102DA000D1F627C08E010D571F4FFE01EB57FF4F85
:102DB00060817181828193810E944900DC01CB0195
:102DC000F80191838083DE01A158BF4FFE01ED57CA
:102DD000FF4F808191818D939C93FE01E158FF4FBD
:102DE000808191810197F1F7FE01E158FF4F9183B6
:102DF00080838091ED00082F10E00E949C12F80162
:102E0000E051FF4F80838091ED00882F90E0FC011E
:102E1000E051FF4F80818F3F61F38091ED00882F5B
:102E200090E0FC01E051FF4F80810E94440C8091B2
:102E3000ED008F5F8093ED00FE01E558FF4F80E0CD
:102E400090E0A6E9B3E480839183A283B3838E01EB
:102E500009581F4FFE01E558FF4F60817181828143
:102E6000938120E030E04AEF54E40E941F02DC012D
:102E7000CB01F80180839183A283B383FE01E958DB
:102E8000FF4F608171818281938120E030E040E8D2
:102E90005FE30E942504882344F4FE01EB58FF4FB2
:102EA00081E090E09183808364C0FE01E958FF4F88
:102EB000608171818281938120E03FEF4FE757E489
:102EC0000E94C50318160CF043C0FE01E558FF4FE1
:102ED000608171818281938120E030E040E251E4A1
:102EE0000E941F02DC01CB018E010B581F4FBC0159
:102EF000CD010E944900DC01CB01F8019183808360
:102F00001FC0FE01ED58FF4F88EC90E09183808355
:102F1000FE01ED58FF4F808191810197F1F7FE018D
:102F2000ED58FF4F91838083DE01AB58BF4FFE0108
:102F3000EB58FF4F80819181019711969C938E935E
:102F4000FE01EB58FF4F808191810097D1F627C099
:102F50008E010B581F4FFE01E958FF4F60817181B0
:102F6000828193810E944900DC01CB01F8019183A9
:102F70008083DE01AF58BF4FFE01EB58FF4F8081C9
:102F800091818D939C93FE01EF58FF4F8081918139
:102F90000197F1F7FE01EF58FF4F918380830E9464
:102FA0009C128093EA008091EA008F3FC1F38091E8
:102FB000EA00813411F00C940A208091F000CC5486
:102FC000DF4F1882C45BD040813331F4F1E0CC5440
:102FD000DF4FF883C45BD0408091F100CD54DF4FC8
:102FE0001882C35BD040823331F421E0CD54DF4FEF
:102FF0002883C35BD040CC54DF4F8881C45BD04072
:10300000CD54DF4F3881C35BD0408323E82FF0E0FD
:10301000CF54DF4FF983E883C15BD0408091F20049
:10302000C155DF4F19821882CF5AD040833341F403
:1030300021E030E0C155DF4F39832883CF5AD0409B
:10304000CF54DF4F88819981C15BD040C155DF4F9C
:10305000E881F981CF5AD0408E239F23C355DF4F9B
:1030600099838883CD5AD0408091F300C555DF4FB6
:1030700019821882CB5AD040843341F421E030E0E9
:10308000C555DF4F39832883CB5AD040C355DF4F16
:1030900088819981CD5AD040C555DF4FE881F981AB
:1030A000CB5AD0408E239F23009711F40C94832099
:1030B00081E00E94A30B89E690E061E041E00E947C
:1030C000DB0DFE01E359FF4F80E090E0AAEFB3E48F
:1030D00080839183A283B3838E0107591F4FFE0122
:1030E000E359FF4F608171818281938120E030E05C
:1030F0004AEF54E40E941F02DC01CB01F8018083F7
:103100009183A283B383FE01E759FF4F60817181F0
:103110008281938120E030E040E85FE30E94250453
:10312000882344F4FE01E959FF4F81E090E0918348
:10313000808364C0FE01E759FF4F60817181828105
:10314000938120E03FEF4FE757E40E94C503181634
:103150000CF043C0FE01E359FF4F60817181828111
:10316000938120E030E040E251E40E941F02DC0144
:10317000CB018E0109591F4FBC01CD010E944900AE
:10318000DC01CB01F801918380831FC0FE01EB5964
:10319000FF4F88EC90E091838083FE01EB59FF4F55
:1031A000808191810197F1F7FE01EB59FF4F9183E7
:1031B0008083DE01A959BF4FFE01E959FF4F80818D
:1031C0009181019711969C938E93FE01E959FF4FCF
:1031D000808191810097D1F627C08E0109591F4F38
:1031E000FE01E759FF4F60817181828193810E94C6
:1031F0004900DC01CB01F80191838083DE01AD59E8
:10320000BF4FFE01E959FF4F808191818D939C93BF
:10321000FE01ED59FF4F808191810197F1F7FE0189
:10322000ED59FF4F9183808380EC0E94A30B809126
:10323000EC00082F10E00E949C12F801EC51FF4FA7
:1032400080838091EC00882F90E0FC01EC51FF4FCF
:1032500080818F3F61F38091EC00882F90E0FC012A
:10326000EC51FF4F8081813491F18091EC00882FE7
:1032700090E0FC01EC51FF4F80818D3341F1809152
:10328000EC00882F90E0FC01EC51FF4F80818B32E5
:10329000F1F08091EC00882F90E0FC01EC51FF4FA1
:1032A00080818D32A1F08091EC00882F90E0FC01AC
:1032B000EC51FF4F80818A3251F08091EC00882FD1
:1032C00090E0FC01EC51FF4F80818F3221F481E0CE
:1032D0000E94A30B04CB8091EC00882F90E0FC01AE
:1032E000EC51FF4F80810E94440C8091EC008F5F75
:1032F0008093EC00FE01E15AFF4F80E090E0A6E9E8
:10330000B3E480839183A283B3838E01055A1F4F58
:10331000FE01E15AFF4F608171818281938120E03B
:1033200030E04AEF54E40E941F02DC01CB01F801B7
:1033300080839183A283B383FE01E55AFF4F6081AE
:1033400071818281938120E030E040E85FE30E9458
:103350002504882344F4FE01E75AFF4F81E090E002
:103360009183808364C0FE01E55AFF4F60817181C3
:103370008281938120E03FEF4FE757E40E94C5032D
:1033800018160CF043C0FE01E15AFF4F60817181B5
:103390008281938120E030E040E251E40E941F02EC
:1033A000DC01CB018E01075A1F4FBC01CD010E94E9
:1033B0004900DC01CB01F801918380831FC0FE012D
:1033C000E95AFF4F88EC90E091838083FE01E95A2F
:1033D000FF4F808191810197F1F7FE01E95AFF4F7C
:1033E00091838083DE01A75ABF4FFE01E75AFF4F4A
:1033F00080819181019711969C938E93FE01E75AEB
:10340000FF4F808191810097D1F627C08E01075A26
:103410001F4FFE01E55AFF4F6081718182819381C8
:103420000E944900DC01CB01F80191838083DE0119
:10343000AB5ABF4FFE01E75AFF4F808191818D93B8
:103440009C93FE01EB5AFF4F808191810197F1F728
:10345000FE01EB5AFF4F918380838091EC00082F8F
:1034600010E00E949C12F801EC51FF4F8083809184
:10347000EC00882F90E0FC01EC51FF4F80818F3FE2
:1034800061F38091EC00882F90E0FC01EC51FF4F3C
:103490008081813491F18091EC00882F90E0FC01D3
:1034A000EC51FF4F80818D3341F18091EC00882FEA
:1034B00090E0FC01EC51FF4F80818B32F1F0809164
:1034C000EC00882F90E0FC01EC51FF4F80818D32A1
:1034D000A1F08091EC00882F90E0FC01EC51FF4FAF
:1034E00080818A3251F08091EC00882F90E0FC01BD
:1034F000EC51FF4F80818F3221F481E00E94A30BB9
:10350000EEC98091EC00882F90E0FC01EC51FF4F58
:1035100080810E94440C8091EC008F5F8093EC00CE
:10352000FE01EF5AFF4F80E090E0A6E9B3E480830C
:103530009183A283B3838E01035B1F4FFE01EF5A79
:10354000FF4F608171818281938120E030E04AEFFA
:1035500054E40E941F02DC01CB01F80180839183B7
:10356000A283B383FE01E35BFF4F6081718182819F
:10357000938120E030E040E85FE30E942504882347
:1035800044F4FE01E55BFF4F81E090E0918380838E
:1035900064C0FE01E35BFF4F608171818281938192
:1035A00020E03FEF4FE757E40E94C50318160CF0E8
:1035B00043C0FE01EF5AFF4F608171818281938188
:1035C00020E030E040E251E40E941F02DC01CB0128
:1035D0008E01055B1F4FBC01CD010E944900DC013B
:1035E000CB01F801918380831FC0FE01E75BFF4F91
:1035F00088EC90E091838083FE01E75BFF4F808140
:1036000091810197F1F7FE01E75BFF4F9183808382
:10361000DE01A55BBF4FFE01E55BFF4F808191811D
:10362000019711969C938E93FE01E55BFF4F80817D
:1036300091810097D1F627C08E01055B1F4FFE01D7
:10364000E35BFF4F60817181828193810E94490019
:10365000DC01CB01F80191838083DE01A95BBF4FC0
:10366000FE01E55BFF4F808191818D939C93FE016C
:10367000E95BFF4F808191810197F1F7FE01E95BE2
:10368000FF4F918380838091EC00082F10E00E940F
:103690009C12F801EC51FF4F80838091EC00882F41
:1036A00090E0FC01EC51FF4F80818F3F61F38091EE
:1036B000EC00882F90E0FC01EC51FF4F80818134B9
:1036C00051F08091EC00882F90E0FC01EC51FF4F0D
:1036D00080818D3321F481E00E94A30B00C9809189
:1036E000EC00882F90E0FC01EC51FF4F80810E949C
:1036F000440C8091EC008F5F8093EC00FE01ED5B49
:10370000FF4F80E090E0A6E9B3E480839183A28339
:10371000B3838E01015C1F4FFE01ED5BFF4F6081A3
:1037200071818281938120E030E04AEF54E40E946D
:103730001F02DC01CB01F80180839183A283B38354
:10374000FE01FF96608171818281938120E030E0EB
:1037500040E85FE30E94250488232CF481E090E098
:103760009EAF8DAF46C0FE01FF9660817181828160
:10377000938120E03FEF4FE757E40E94C5031816FE
:1037800064F5FE01ED5BFF4F608171818281938161
:1037900020E030E040E251E40E941F02DC01CB0156
:1037A000BC01CD010E944900DC01CB019EAF8DAF71
:1037B0000FC088EC90E09CAF8BAF8BAD9CAD0197B8
:1037C000F1F79CAF8BAF8DAD9EAD01979EAF8DAFE6
:1037D0008DAD9EAD009769F716C0FE01FF96608122
:1037E0007181828193810E944900DC01CB019EAFEF
:1037F0008DAF8DAD9EAD9AAF89AF89AD9AAD019772
:10380000F1F79AAF89AF8091EC00082F10E00E9489
:103810009C12F801EC51FF4F80838091EC00882FBF
:1038200090E0FC01EC51FF4F80818F3F61F380916C
:10383000EC00882F90E0FC01EC51FF4F8081813437
:1038400091F18091EC00882F90E0FC01EC51FF4F4A
:1038500080818D3341F18091EC00882F90E0FC0154
:10386000EC51FF4F80818B32F1F08091EC00882F7A
:1038700090E0FC01EC51FF4F80818D32A1F08091EE
:10388000EC00882F90E0FC01EC51FF4F80818A32E0
:1038900051F08091EC00882F90E0FC01EC51FF4F3B
:1038A00080818F3229F481E00E94A30B0C946F1465
:1038B0008091EC00882F90E0FC01EC51FF4F80815B
:1038C0000E94440C8091EC008F5F8093EC0080E0BC
:1038D00090E0A6E9B3E48DAB9EABAFABB8AF6DA9FA
:1038E0007EA98FA998AD20E030E04AEF54E40E9411
:1038F0001F02DC01CB0189AB9AABABABBCAB69A9B6
:103900007AA98BA99CA920E030E040E85FE30E94FF
:10391000250488232CF481E090E098AB8FA73FC06A
:1039200069A97AA98BA99CA920E03FEF4FE757E44A
:103930000E94C50318164CF56DA97EA98FA998ADF4
:1039400020E030E040E251E40E941F02DC01CB01A4
:10395000BC01CD010E944900DC01CB0198AB8FA7CF
:103960000FC088EC90E09EA78DA78DA59EA501971E
:10397000F1F79EA78DA78FA598A9019798AB8FA760
:103980008FA598A9009769F714C069A97AA98BA98E
:103990009CA90E944900DC01CB0198AB8FA78FA5A1
:1039A00098A99CA78BA78BA59CA50197F1F79CA72D
:1039B0008BA78091EC00082F10E00E949C12F80168
:1039C000EC51FF4F80838091EC00882F90E0FC0148
:1039D000EC51FF4F80818F3F61F38091EC00882F85
:1039E00090E0FC01EC51FF4F8081813491F1809196
:1039F000EC00882F90E0FC01EC51FF4F80818D336B
:103A000041F18091EC00882F90E0FC01EC51FF4FD8
:103A100080818B32F1F08091EC00882F90E0FC01E6
:103A2000EC51FF4F80818D32A1F08091EC00882F06
:103A300090E0FC01EC51FF4F80818A3251F080917F
:103A4000EC00882F90E0FC01EC51FF4F80818F3219
:103A500029F481E00E94A30B0C946F148091EC0078
:103A6000882F90E0FC01EC51FF4F80810E94440CB4
:103A70008091EC008F5F8093EC0080E090E0A6E9FD
:103A8000B3E48FA398A7A9A7BAA76FA178A589A522
:103A90009AA520E030E04AEF54E40E941F02DC01C6
:103AA000CB018BA39CA3ADA3BEA36BA17CA18DA1D5
:103AB0009EA120E030E040E85FE30E9425048823D7
:103AC0002CF481E090E09AA389A33FC06BA17CA174
:103AD0008DA19EA120E03FEF4FE757E40E94C50370
:103AE00018164CF56FA178A589A59AA520E030E0BD
:103AF00040E251E40E941F02DC01CB01BC01CD0178
:103B00000E944900DC01CB019AA389A30FC088EC75
:103B100090E098A38F8F8F8D98A10197F1F798A3CC
:103B20008F8F89A19AA101979AA389A389A19AA1AC
:103B3000009769F714C06BA17CA18DA19EA10E9482
:103B40004900DC01CB019AA389A389A19AA19E8F88
:103B50008D8F8D8D9E8D0197F1F79E8F8D8F80912A
:103B6000EC00082F10E00E949C12F801EC51FF4F6E
:103B700080838091EC00882F90E0FC01EC51FF4F96
:103B800080818F3F61F38091EC00882F90E0FC01F1
:103B9000EC51FF4F80818D3309F037C28091EC00EA
:103BA000882F90E0FC01EC51FF4F80810E94440C73
:103BB0008091EC00882F90E00397FC01EC51FF4FBF
:103BC0008081282F30E0C755DF4F39832883C95AB9
:103BD000D040C755DF4F88819981C95AD0408B3278
:103BE000910549F1C755DF4FE881F981C95AD040A5
:103BF000EC32F1055CF4C755DF4F28813981C95A91
:103C0000D0402A32310509F4D1C08CC1C755DF4FED
:103C100088819981C95AD0408D32910509F465C0D7
:103C2000C755DF4FE881F981C95AD040EF32F1051D
:103C300009F41CC177C18091EC00882F90E00497B3
:103C4000FC01EC51FF4F8081882F90E0AC01405384
:103C500050408091EC00882F90E00597FC01EC51DA
:103C6000FF4F8081882F90E09C01220F331FC901F4
:103C7000880F991F880F991F820F931F805E9140B4
:103C8000480F591F8091EC00882F90E00297FC01AB
:103C9000EC51FF4F8081882F90E09C01220F331F51
:103CA000C901880F991F880F991F820F931F805E8B
:103CB00091409A01280F391F8091EC00882F90E0E5
:103CC0000197FC01EC51FF4F8081882F90E0C09755
:103CD000820F931F9093EF008093EE008091EE008F
:103CE0009091EF000E9491201DC18091EC00882FDF
:103CF00090E00497FC01EC51FF4F8081882F90E009
:103D0000AC01405350408091EC00882F90E0059723
:103D1000FC01EC51FF4F8081882F90E09C01220F25
:103D2000331FC901880F991F880F991F820F931F96
:103D3000805E9140BA01680F791F8091EC00882F56
:103D400090E00197FC01EC51FF4F8081282F30E07B
:103D500080E390E0AC01421B530B8091EC00882F74
:103D600090E00297FC01EC51FF4F8081882F90E09A
:103D70009C01220F331FC901880F991F880F991FBB
:103D8000820F931F909581959F4F80529E4F840F75
:103D9000951F860F971F9093EF008093EE00809100
:103DA000EE009091EF000E949120BCC08091EC0049
:103DB000882F90E00497FC01EC51FF4F8081882F01
:103DC00090E0AC01405350408091EC00882F90E08F
:103DD0000597FC01EC51FF4F8081882F90E09C01FA
:103DE000220F331FC901880F991F880F991F820F57
:103DF000931F805E9140480F591F8091EC00882FDF
:103E000090E00297FC01EC51FF4F8081882F90E0F9
:103E10009C01220F331FC901880F991F880F991F1A
:103E2000820F931F9C01205E31408091EC00882F0F
:103E300090E00197FC01EC51FF4F8081882F90E0CA
:103E4000C097820F931F9C01429FC001439F900D1A
:103E5000529F900D11249093EF008093EE0080917B
:103E6000EE009091EF000E9491205CC08091EC00E8
:103E7000882F90E00497FC01EC51FF4F8081882F40
:103E800090E0AC01405350408091EC00882F90E0CE
:103E90000597FC01EC51FF4F8081882F90E09C0139
:103EA000220F331FC901880F991F880F991F820F96
:103EB000931F805E9140480F591F8091EC00882F1E
:103EC00090E00297FC01EC51FF4F8081882F90E039
:103ED0009C01220F331FC901880F991F880F991F5A
:103EE000820F931F9C01205E31408091EC00882F4F
:103EF00090E00197FC01EC51FF4F8081882F90E00A
:103F0000C097280F391FCA01B9010E946821CB014F
:103F10009093EF008093EE008091EE009091EF007F
:103F20000E94912080E090E0AAEFB4E4898F9A8FFC
:103F3000AB8FBC8F698D7A8D8B8D9C8D20E030E0AE
:103F40004AEF54E40E941F02DC01CB018D8B9E8B53
:103F5000AF8BB88F6D897E898F89988D20E030E096
:103F600040E85FE30E94250488232CF481E090E080
:103F70009C8B8B8B3FC06D897E898F89988D20E0CB
:103F80003FEF4FE757E40E94C50318164CF5698DC3
:103F90007A8D8B8D9C8D20E030E040E251E40E94D0
:103FA0001F02DC01CB01BC01CD010E944900DC01F4
:103FB000CB019C8B8B8B0FC088EC90E09A8B898B0C
:103FC00089899A890197F1F79A8B898B8B899C89CA
:103FD00001979C8B8B8B8B899C89009769F724C9EF
:103FE0006D897E898F89988D0E944900DC01CB0103
:103FF0009C8B8B8B8B899C89988B8F878F859889DD
:104000000197F1F7988B8F870FC981E00E94A30B6E
:104010000C946F1481E00E94A30B81E790E00E9452
:10402000E50C80E090E0AAEFB4E48B879C87AD8735
:10403000BE876B857C858D859E8520E030E04AEFCC
:1040400054E40E941F02DC01CB018F839887A9876B
:10405000BA876F81788589859A8520E030E040E8CD
:104060005FE30E94250488232CF481E090E09E8386
:104070008D833FC06F81788589859A8520E03FEFE9
:104080004FE757E40E94C50318164CF56B857C85F5
:104090008D859E8520E030E040E251E40E941F02C1
:1040A000DC01CB01BC01CD010E944900DC01CB0148
:1040B0009E838D830FC088EC90E09C838B838B81E3
:1040C0009C810197F1F79C838B838D819E81019761
:1040D0009E838D838D819E81009769F714C06F81C7
:1040E000788589859A850E944900DC01CB019E83F1
:1040F0008D838D819E819A83898389819A8101979D
:10410000F1F79A83898380E090E0CC54DF4F0FB6BB
:10411000F894DEBF0FBECDBFCF91DF911F910F91FD
:104120000895DF93CF9300D0CDB7DEB79A8389830C
:1041300089819A818436910564F189819A8123E08D
:10414000883E920734F589819A8124E630E0B901EE
:104150000E946821CB01805D0E94440C89819A8174
:104160002AE030E0B9010E946821CB012AE030E06A
:10417000B9010E946821805D0E94440C89819A8166
:104180002AE030E0B9010E946821805D0E94440C61
:1041900029C089819A818A309105DCF089819A81D0
:1041A00084369105B4F489819A812AE030E0B9011E
:1041B0000E946821CB01805D0E94440C89819A8114
:1041C0002AE030E0B9010E946821805D0E94440C21
:1041D00009C089819A818A30910524F48981805DA2
:1041E0000E94440C0F900F90CF91DF910895DF93C0
:1041F000CF93CDB7DEB72D970FB6F894DEBF0FBEC5
:10420000CDBF9A838983E981FA8180811D868130BF
:1042100011F421E02D8789819A81FC0131968081FA
:104220001C86823011F431E03C878D859C85892382
:10423000282F30E03B872A8789819A81FC013296BA
:10424000808119861886833021F481E090E0998777
:1042500088872A853B8588859985282339233F834C
:104260002E8389819A81FC01339680811D821C8274
:10427000843021F421E030E03D832C838E819F81C6
:104280002C813D8182239323009719F031E03B83F9
:1042900001C01B828B812D960FB6F894DEBF0FBE36
:1042A000CDBFCF91DF910895AA1BBB1B51E107C081
:1042B000AA1FBB1FA617B70710F0A61BB70B881FB6
:1042C000991F5A95A9F780959095BC01CD01089545
:1042D00097FB092E07260AD077FD04D0E5DF06D02C
:1042E00000201AF4709561957F4F0895F6F7909528
:1042F00081959F4F08952F923F924F925F926F92B8
:104300007F928F929F92AF92BF92CF92DF92EF9265
:10431000FF920F931F93CF93DF93CDB7DEB7CA1BE6
:10432000DB0B0FB6F894DEBF0FBECDBF09942A8811
:10433000398848885F846E847D848C849B84AA84B9
:10434000B984C884DF80EE80FD800C811B81AA8146
:10435000B981CE0FD11D0FB6F894DEBF0FBECDBF11
:10436000ED010895FC0101900020E9F780959095FA
:0A4370008E0F9F1F0895F894FFCFF1
:10437A0070617373776F72640057656C636F6D65F4
:10438A000057726F6E672050617373776F726400A3
:10439A000000000000000000000401000005010008
:1043AA0000060100000701000100000001010100F0
:1043BA0001020100010301000200010002010100E3
:1043CA0002020100020301000204000102050001C9
:1043DA0002060001020700010304010003020000B3
:1043EA00000000003738392F3435362A3132332D60
:0C43FA0041303D2BFFFFFFFFFFFFFF00E5
:00000001FF
